{
  "contractName": "Airdrop",
  "abi": [
    {
      "anonymous": false,
      "inputs": [
        {
          "indexed": false,
          "internalType": "address",
          "name": "caller",
          "type": "address"
        },
        {
          "indexed": false,
          "internalType": "uint256",
          "name": "amount",
          "type": "uint256"
        }
      ],
      "name": "AirdropClaimed",
      "type": "event"
    },
    {
      "anonymous": false,
      "inputs": [
        {
          "indexed": false,
          "internalType": "uint256",
          "name": "claimableAmount",
          "type": "uint256"
        }
      ],
      "name": "ClaimableAmountSet",
      "type": "event"
    },
    {
      "anonymous": false,
      "inputs": [
        {
          "indexed": true,
          "internalType": "address",
          "name": "previousOwner",
          "type": "address"
        },
        {
          "indexed": true,
          "internalType": "address",
          "name": "newOwner",
          "type": "address"
        }
      ],
      "name": "OwnershipTransferred",
      "type": "event"
    },
    {
      "anonymous": false,
      "inputs": [
        {
          "indexed": false,
          "internalType": "address",
          "name": "setTokenAddress",
          "type": "address"
        }
      ],
      "name": "TokenAddressSet",
      "type": "event"
    },
    {
      "inputs": [],
      "name": "claimableAmount",
      "outputs": [
        {
          "internalType": "uint256",
          "name": "",
          "type": "uint256"
        }
      ],
      "stateMutability": "view",
      "type": "function",
      "constant": true
    },
    {
      "inputs": [],
      "name": "owner",
      "outputs": [
        {
          "internalType": "address",
          "name": "",
          "type": "address"
        }
      ],
      "stateMutability": "view",
      "type": "function",
      "constant": true
    },
    {
      "inputs": [],
      "name": "renounceOwnership",
      "outputs": [],
      "stateMutability": "nonpayable",
      "type": "function"
    },
    {
      "inputs": [],
      "name": "token",
      "outputs": [
        {
          "internalType": "contract IERC20",
          "name": "",
          "type": "address"
        }
      ],
      "stateMutability": "view",
      "type": "function",
      "constant": true
    },
    {
      "inputs": [
        {
          "internalType": "address",
          "name": "newOwner",
          "type": "address"
        }
      ],
      "name": "transferOwnership",
      "outputs": [],
      "stateMutability": "nonpayable",
      "type": "function"
    },
    {
      "inputs": [
        {
          "internalType": "address",
          "name": "_tokenAddress",
          "type": "address"
        }
      ],
      "name": "setTokenAddress",
      "outputs": [],
      "stateMutability": "nonpayable",
      "type": "function"
    },
    {
      "inputs": [
        {
          "internalType": "uint256",
          "name": "_amount",
          "type": "uint256"
        }
      ],
      "name": "setClaimableAmount",
      "outputs": [],
      "stateMutability": "nonpayable",
      "type": "function"
    },
    {
      "inputs": [],
      "name": "claimAirdrop",
      "outputs": [],
      "stateMutability": "nonpayable",
      "type": "function"
    },
    {
      "inputs": [],
      "name": "getTokenAddress",
      "outputs": [
        {
          "internalType": "contract IERC20",
          "name": "",
          "type": "address"
        }
      ],
      "stateMutability": "view",
      "type": "function",
      "constant": true
    },
    {
      "inputs": [],
      "name": "getBalance",
      "outputs": [
        {
          "internalType": "uint256",
          "name": "",
          "type": "uint256"
        }
      ],
      "stateMutability": "view",
      "type": "function",
      "constant": true
    },
    {
      "inputs": [],
      "name": "getClaimableAmount",
      "outputs": [
        {
          "internalType": "uint256",
          "name": "",
          "type": "uint256"
        }
      ],
      "stateMutability": "view",
      "type": "function",
      "constant": true
    }
  ],
  "bytecode": "0x608060405234801561001057600080fd5b5061002d61002261003960201b60201c565b61004160201b60201c565b60018081905550610105565b600033905090565b60008060009054906101000a900473ffffffffffffffffffffffffffffffffffffffff169050816000806101000a81548173ffffffffffffffffffffffffffffffffffffffff021916908373ffffffffffffffffffffffffffffffffffffffff1602179055508173ffffffffffffffffffffffffffffffffffffffff168173ffffffffffffffffffffffffffffffffffffffff167f8be0079c531659141344cd1fd0a4f28419497f9722a3daafe3b4186f6b6457e060405160405180910390a35050565b611207806101146000396000f3fe608060405234801561001057600080fd5b50600436106100a95760003560e01c8063715018a611610071578063715018a61461012c5780638da5cb5b14610136578063a556f84614610154578063c354bd6e14610172578063f2fde38b14610190578063fc0c546a146101ac576100a9565b806310fe9ae8146100ae57806312065fe0146100cc57806326a4e8d2146100ea57806354df144d146101065780635b88349d14610122575b600080fd5b6100b66101ca565b6040516100c39190610c28565b60405180910390f35b6100d46101f4565b6040516100e19190610c5c565b60405180910390f35b61010460048036038101906100ff9190610cba565b610328565b005b610120600480360381019061011b9190610d13565b61041f565b005b61012a61057d565b005b6101346108fe565b005b61013e610986565b60405161014b9190610d4f565b60405180910390f35b61015c6109af565b6040516101699190610c5c565b60405180910390f35b61017a6109b5565b6040516101879190610c5c565b60405180910390f35b6101aa60048036038101906101a59190610cba565b6109bf565b005b6101b4610ab7565b6040516101c19190610c28565b60405180910390f35b6000600260009054906101000a900473ffffffffffffffffffffffffffffffffffffffff16905090565b60008073ffffffffffffffffffffffffffffffffffffffff16600260009054906101000a900473ffffffffffffffffffffffffffffffffffffffff1673ffffffffffffffffffffffffffffffffffffffff161415610287576040517f08c379a000000000000000000000000000000000000000000000000000000000815260040161027e90610dc7565b60405180910390fd5b600260009054906101000a900473ffffffffffffffffffffffffffffffffffffffff1673ffffffffffffffffffffffffffffffffffffffff166370a08231306040518263ffffffff1660e01b81526004016102e29190610d4f565b602060405180830381865afa1580156102ff573d6000803e3d6000fd5b505050506040513d601f19601f820116820180604052508101906103239190610dfc565b905090565b610330610add565b73ffffffffffffffffffffffffffffffffffffffff1661034e610986565b73ffffffffffffffffffffffffffffffffffffffff16146103a4576040517f08c379a000000000000000000000000000000000000000000000000000000000815260040161039b90610e75565b60405180910390fd5b80600260006101000a81548173ffffffffffffffffffffffffffffffffffffffff021916908373ffffffffffffffffffffffffffffffffffffffff1602179055507fd82cad5fdc98633445b90f806f2e1a61a5409f92187ee9cd87f1da18c9069266816040516104149190610d4f565b60405180910390a150565b610427610add565b73ffffffffffffffffffffffffffffffffffffffff16610445610986565b73ffffffffffffffffffffffffffffffffffffffff161461049b576040517f08c379a000000000000000000000000000000000000000000000000000000000815260040161049290610e75565b60405180910390fd5b600073ffffffffffffffffffffffffffffffffffffffff16600260009054906101000a900473ffffffffffffffffffffffffffffffffffffffff1673ffffffffffffffffffffffffffffffffffffffff16141561052d576040517f08c379a000000000000000000000000000000000000000000000000000000000815260040161052490610dc7565b60405180910390fd5b6000811161053a57600080fd5b806004819055507fe13b87e357b6ab17c565a8042616084608de82978cf3794844a036a9b6abbb8b6004546040516105729190610c5c565b60405180910390a150565b600073ffffffffffffffffffffffffffffffffffffffff16600260009054906101000a900473ffffffffffffffffffffffffffffffffffffffff1673ffffffffffffffffffffffffffffffffffffffff16141561060f576040517f08c379a000000000000000000000000000000000000000000000000000000000815260040161060690610dc7565b60405180910390fd5b600060045411610654576040517f08c379a000000000000000000000000000000000000000000000000000000000815260040161064b90610ee1565b60405180910390fd5b6002600154141561069a576040517f08c379a000000000000000000000000000000000000000000000000000000000815260040161069190610f4d565b60405180910390fd5b600260018190555060001515600360003373ffffffffffffffffffffffffffffffffffffffff1673ffffffffffffffffffffffffffffffffffffffff16815260200190815260200160002060009054906101000a900460ff16151514610735576040517f08c379a000000000000000000000000000000000000000000000000000000000815260040161072c90610fb9565b60405180910390fd5b6004546107406101f4565b1015610781576040517f08c379a000000000000000000000000000000000000000000000000000000000815260040161077890611025565b60405180910390fd5b600260009054906101000a900473ffffffffffffffffffffffffffffffffffffffff1673ffffffffffffffffffffffffffffffffffffffff1663a9059cbb336004546040518363ffffffff1660e01b81526004016107e0929190611045565b6020604051808303816000875af11580156107ff573d6000803e3d6000fd5b505050506040513d601f19601f8201168201806040525081019061082391906110a6565b610862576040517f08c379a00000000000000000000000000000000000000000000000000000000081526004016108599061111f565b60405180910390fd5b6001600360003373ffffffffffffffffffffffffffffffffffffffff1673ffffffffffffffffffffffffffffffffffffffff16815260200190815260200160002060006101000a81548160ff0219169083151502179055507f650e45f04ef8a0c267b2f78d983913f69ae3a353b2b32de5429307522be0ab55336004546040516108ed929190611045565b60405180910390a160018081905550565b610906610add565b73ffffffffffffffffffffffffffffffffffffffff16610924610986565b73ffffffffffffffffffffffffffffffffffffffff161461097a576040517f08c379a000000000000000000000000000000000000000000000000000000000815260040161097190610e75565b60405180910390fd5b6109846000610ae5565b565b60008060009054906101000a900473ffffffffffffffffffffffffffffffffffffffff16905090565b60045481565b6000600454905090565b6109c7610add565b73ffffffffffffffffffffffffffffffffffffffff166109e5610986565b73ffffffffffffffffffffffffffffffffffffffff1614610a3b576040517f08c379a0000000000000000000000000000000000000000000000000000000008152600401610a3290610e75565b60405180910390fd5b600073ffffffffffffffffffffffffffffffffffffffff168173ffffffffffffffffffffffffffffffffffffffff161415610aab576040517f08c379a0000000000000000000000000000000000000000000000000000000008152600401610aa2906111b1565b60405180910390fd5b610ab481610ae5565b50565b600260009054906101000a900473ffffffffffffffffffffffffffffffffffffffff1681565b600033905090565b60008060009054906101000a900473ffffffffffffffffffffffffffffffffffffffff169050816000806101000a81548173ffffffffffffffffffffffffffffffffffffffff021916908373ffffffffffffffffffffffffffffffffffffffff1602179055508173ffffffffffffffffffffffffffffffffffffffff168173ffffffffffffffffffffffffffffffffffffffff167f8be0079c531659141344cd1fd0a4f28419497f9722a3daafe3b4186f6b6457e060405160405180910390a35050565b600073ffffffffffffffffffffffffffffffffffffffff82169050919050565b6000819050919050565b6000610bee610be9610be484610ba9565b610bc9565b610ba9565b9050919050565b6000610c0082610bd3565b9050919050565b6000610c1282610bf5565b9050919050565b610c2281610c07565b82525050565b6000602082019050610c3d6000830184610c19565b92915050565b6000819050919050565b610c5681610c43565b82525050565b6000602082019050610c716000830184610c4d565b92915050565b600080fd5b6000610c8782610ba9565b9050919050565b610c9781610c7c565b8114610ca257600080fd5b50565b600081359050610cb481610c8e565b92915050565b600060208284031215610cd057610ccf610c77565b5b6000610cde84828501610ca5565b91505092915050565b610cf081610c43565b8114610cfb57600080fd5b50565b600081359050610d0d81610ce7565b92915050565b600060208284031215610d2957610d28610c77565b5b6000610d3784828501610cfe565b91505092915050565b610d4981610c7c565b82525050565b6000602082019050610d646000830184610d40565b92915050565b600082825260208201905092915050565b7f4e6f20746f6b656e206164647265737320736574000000000000000000000000600082015250565b6000610db1601483610d6a565b9150610dbc82610d7b565b602082019050919050565b60006020820190508181036000830152610de081610da4565b9050919050565b600081519050610df681610ce7565b92915050565b600060208284031215610e1257610e11610c77565b5b6000610e2084828501610de7565b91505092915050565b7f4f776e61626c653a2063616c6c6572206973206e6f7420746865206f776e6572600082015250565b6000610e5f602083610d6a565b9150610e6a82610e29565b602082019050919050565b60006020820190508181036000830152610e8e81610e52565b9050919050565b7f4e6f2063616c696d61626c6520616d6f756e7420736574000000000000000000600082015250565b6000610ecb601783610d6a565b9150610ed682610e95565b602082019050919050565b60006020820190508181036000830152610efa81610ebe565b9050919050565b7f5265656e7472616e637947756172643a207265656e7472616e742063616c6c00600082015250565b6000610f37601f83610d6a565b9150610f4282610f01565b602082019050919050565b60006020820190508181036000830152610f6681610f2a565b9050919050565b7f41697264726f702068617320616c7265616479206265656e20636c61696d6564600082015250565b6000610fa3602083610d6a565b9150610fae82610f6d565b602082019050919050565b60006020820190508181036000830152610fd281610f96565b9050919050565b7f536f7272792c206e6f20746f6b656e73206c6566742100000000000000000000600082015250565b600061100f601683610d6a565b915061101a82610fd9565b602082019050919050565b6000602082019050818103600083015261103e81611002565b9050919050565b600060408201905061105a6000830185610d40565b6110676020830184610c4d565b9392505050565b60008115159050919050565b6110838161106e565b811461108e57600080fd5b50565b6000815190506110a08161107a565b92915050565b6000602082840312156110bc576110bb610c77565b5b60006110ca84828501611091565b91505092915050565b7f5472616e7366657220776173206e6f74207375636365737366756c0000000000600082015250565b6000611109601b83610d6a565b9150611114826110d3565b602082019050919050565b60006020820190508181036000830152611138816110fc565b9050919050565b7f4f776e61626c653a206e6577206f776e657220697320746865207a65726f206160008201527f6464726573730000000000000000000000000000000000000000000000000000602082015250565b600061119b602683610d6a565b91506111a68261113f565b604082019050919050565b600060208201905081810360008301526111ca8161118e565b905091905056fea26469706673582212206a88fb74fdd6c67bd878299b872cce02887a251f0d1b8bf2f7774acbc872ae0264736f6c634300080a0033",
  "immutableReferences": {},
  "source": "// SPDX-License-Identifier: MIT\npragma solidity ^0.8.0;\n\nimport \"@openzeppelin/contracts/access/Ownable.sol\";\nimport \"@openzeppelin/contracts/token/ERC20/IERC20.sol\";\nimport \"@openzeppelin/contracts/utils/math/SafeMath.sol\";\nimport \"@openzeppelin/contracts/security/ReentrancyGuard.sol\";\n\n/// @title Airdrop Contract\n/// @author ethSplit\n/// @notice Users can use this contract to claim tokens for free once per address\n/// @dev The owner sets the token address and the claimable amount, so users can claim tokens, while a mapping checks if a user already claimed tokens.\ncontract Airdrop is Ownable, ReentrancyGuard{\n\n    /// @notice Emitted when TokenAddress is being set\n    /// @param setTokenAddress ERC20 TokenAddress\n    event TokenAddressSet(address setTokenAddress);\n\n    /// @notice Emitted when ClaimableAmount is being set\n    /// @param claimableAmount amount to claim per user\n    event ClaimableAmountSet(uint claimableAmount);\n\n    /// @notice Emitted when Airdrop is being claimed\n    /// @param caller user that claimed the airdrop\n    /// @param amount that has been claimed\n    event AirdropClaimed(address caller, uint amount);\n\n    /// @notice used to store the token address\n    /// @dev imported IERC20.sol from openzeppelin to store token address\n    IERC20 public token;\n\n    /// @notice Mapping used to check if users claimed already\n    /// @dev sets the user that claims to true\n    mapping (address => bool) claimed;\n\n    /***\n    todo Whitelist users\n    /// @notice Checks if users are whitelisted\n    /// @dev owner can set an address to true, if it is eligible for the airdrop\n    mapping (address => bool) public whitelist;\n    ***/\n\n    /// @notice Amount of tokens to be claimed\n    /// @dev uint that stores the claimable amount of tokens per user\n    uint256 public claimableAmount;\n    \n    modifier isTokenSet() {\n        require(token != IERC20(address(0)), \"No token address set\");\n        _;\n    }\n    \n    modifier claimableAmountSet () {\n        require(claimableAmount > 0, \"No calimable amount set\");\n        _;\n    }\n\n    /// @notice sets the tokenaddress the contract will use\n    /// @dev adds the ERC20 Token address\n    /// @param _tokenAddress for the Token that should be claimable\n    function setTokenAddress (address _tokenAddress) external onlyOwner() {\n        token = IERC20(_tokenAddress);\n        emit TokenAddressSet(_tokenAddress);\n    }\n\n    /// @notice sets the amount of tokens that can be claimed per user\n    /// @dev pass normal decimal number\n    /// @param _amount the amount of tokens that should be claimable\n    function setClaimableAmount (uint _amount) external onlyOwner() isTokenSet(){\n        require(_amount > 0);\n        claimableAmount = _amount;\n        emit ClaimableAmountSet(claimableAmount);\n    }\n\n    /// @notice lets user claim the airdrop\n    /// @dev check that a user can claim only once\n    function claimAirdrop () external isTokenSet() claimableAmountSet() nonReentrant {\n        /**todo only whitelisted users\n        require(whitelist[msg.sender] == true);\n        **/\n        require(claimed[msg.sender] == false, \"Airdrop has already been claimed\");\n        require(getBalance() >= claimableAmount, \"Sorry, no tokens left!\");\n        require(token.transfer(msg.sender, claimableAmount), \"Transfer was not successful\");\n        claimed[msg.sender] = true;\n        emit AirdropClaimed(msg.sender, claimableAmount);\n    }\n\n    function getTokenAddress () public view returns(IERC20) {\n        return token;\n    }\n    \n    /// @notice returns the balance of this contract\n    /// @dev returns token balance\n    /// @return uint that stands for the token balance of this contract\n    function getBalance () public view isTokenSet() returns(uint) {\n        return token.balanceOf(address(this));\n    }\n\n    function getClaimableAmount () public view returns(uint) {\n        return claimableAmount;\n    }\n\n     /***\n    todo Add whitelist functionality\n    function addToWhiteList (address _user) onlyOwner() {\n        require (whitelist[_user] !=== false);\n        whitelist[_user] == true;\n    }\n    ***/\n    \n}",
  "sourcePath": "/mnt/c/Users/abesl/Coding/webpack/contracts/Airdrop.sol",
  "compiler": {
    "name": "solc",
    "version": "0.8.10+commit.fc410830.Emscripten.clang"
  },
  "schemaVersion": "3.4.3",
  "updatedAt": "2021-11-30T04:32:19.754Z",
  "networkType": "ethereum",
  "devdoc": {
    "author": "ethSplit",
    "details": "The owner sets the token address and the claimable amount, so users can claim tokens, while a mapping checks if a user already claimed tokens.",
    "events": {
      "AirdropClaimed(address,uint256)": {
        "params": {
          "amount": "that has been claimed",
          "caller": "user that claimed the airdrop"
        }
      },
      "ClaimableAmountSet(uint256)": {
        "params": {
          "claimableAmount": "amount to claim per user"
        }
      },
      "TokenAddressSet(address)": {
        "params": {
          "setTokenAddress": "ERC20 TokenAddress"
        }
      }
    },
    "kind": "dev",
    "methods": {
      "claimAirdrop()": {
        "details": "check that a user can claim only once"
      },
      "getBalance()": {
        "details": "returns token balance",
        "returns": {
          "_0": "uint that stands for the token balance of this contract"
        }
      },
      "owner()": {
        "details": "Returns the address of the current owner."
      },
      "renounceOwnership()": {
        "details": "Leaves the contract without owner. It will not be possible to call `onlyOwner` functions anymore. Can only be called by the current owner. NOTE: Renouncing ownership will leave the contract without an owner, thereby removing any functionality that is only available to the owner."
      },
      "setClaimableAmount(uint256)": {
        "details": "pass normal decimal number",
        "params": {
          "_amount": "the amount of tokens that should be claimable"
        }
      },
      "setTokenAddress(address)": {
        "details": "adds the ERC20 Token address",
        "params": {
          "_tokenAddress": "for the Token that should be claimable"
        }
      },
      "transferOwnership(address)": {
        "details": "Transfers ownership of the contract to a new account (`newOwner`). Can only be called by the current owner."
      }
    },
    "stateVariables": {
      "claimableAmount": {
        "details": "uint that stores the claimable amount of tokens per user"
      },
      "claimed": {
        "details": "sets the user that claims to true"
      },
      "token": {
        "details": "imported IERC20.sol from openzeppelin to store token address"
      }
    },
    "title": "Airdrop Contract",
    "version": 1
  },
  "userdoc": {
    "events": {
      "AirdropClaimed(address,uint256)": {
        "notice": "Emitted when Airdrop is being claimed"
      },
      "ClaimableAmountSet(uint256)": {
        "notice": "Emitted when ClaimableAmount is being set"
      },
      "TokenAddressSet(address)": {
        "notice": "Emitted when TokenAddress is being set"
      }
    },
    "kind": "user",
    "methods": {
      "claimAirdrop()": {
        "notice": "lets user claim the airdrop"
      },
      "claimableAmount()": {
        "notice": "Amount of tokens to be claimed"
      },
      "getBalance()": {
        "notice": "returns the balance of this contract"
      },
      "setClaimableAmount(uint256)": {
        "notice": "sets the amount of tokens that can be claimed per user"
      },
      "setTokenAddress(address)": {
        "notice": "sets the tokenaddress the contract will use"
      },
      "token()": {
        "notice": "used to store the token address"
      }
    },
    "notice": "Users can use this contract to claim tokens for free once per address",
    "version": 1
  }
}