{
  "contractName": "Airdrop",
  "abi": [
    {
      "anonymous": false,
      "inputs": [
        {
          "indexed": false,
          "internalType": "address",
          "name": "caller",
          "type": "address"
        },
        {
          "indexed": false,
          "internalType": "uint256",
          "name": "amount",
          "type": "uint256"
        }
      ],
      "name": "AirdropClaimed",
      "type": "event"
    },
    {
      "anonymous": false,
      "inputs": [
        {
          "indexed": false,
          "internalType": "uint256",
          "name": "claimableAmount",
          "type": "uint256"
        }
      ],
      "name": "ClaimableAmountSet",
      "type": "event"
    },
    {
      "anonymous": false,
      "inputs": [
        {
          "indexed": true,
          "internalType": "address",
          "name": "previousOwner",
          "type": "address"
        },
        {
          "indexed": true,
          "internalType": "address",
          "name": "newOwner",
          "type": "address"
        }
      ],
      "name": "OwnershipTransferred",
      "type": "event"
    },
    {
      "anonymous": false,
      "inputs": [
        {
          "indexed": false,
          "internalType": "address",
          "name": "setTokenAddress",
          "type": "address"
        }
      ],
      "name": "TokenAddressSet",
      "type": "event"
    },
    {
      "inputs": [],
      "name": "claimableAmount",
      "outputs": [
        {
          "internalType": "uint256",
          "name": "",
          "type": "uint256"
        }
      ],
      "stateMutability": "view",
      "type": "function",
      "constant": true
    },
    {
      "inputs": [],
      "name": "owner",
      "outputs": [
        {
          "internalType": "address",
          "name": "",
          "type": "address"
        }
      ],
      "stateMutability": "view",
      "type": "function",
      "constant": true
    },
    {
      "inputs": [],
      "name": "renounceOwnership",
      "outputs": [],
      "stateMutability": "nonpayable",
      "type": "function"
    },
    {
      "inputs": [],
      "name": "token",
      "outputs": [
        {
          "internalType": "contract IERC20",
          "name": "",
          "type": "address"
        }
      ],
      "stateMutability": "view",
      "type": "function",
      "constant": true
    },
    {
      "inputs": [
        {
          "internalType": "address",
          "name": "newOwner",
          "type": "address"
        }
      ],
      "name": "transferOwnership",
      "outputs": [],
      "stateMutability": "nonpayable",
      "type": "function"
    },
    {
      "inputs": [
        {
          "internalType": "address",
          "name": "_tokenAddress",
          "type": "address"
        }
      ],
      "name": "setTokenAddress",
      "outputs": [],
      "stateMutability": "nonpayable",
      "type": "function"
    },
    {
      "inputs": [
        {
          "internalType": "uint256",
          "name": "_amount",
          "type": "uint256"
        }
      ],
      "name": "setClaimableAmount",
      "outputs": [],
      "stateMutability": "nonpayable",
      "type": "function"
    },
    {
      "inputs": [],
      "name": "claimAirdrop",
      "outputs": [],
      "stateMutability": "nonpayable",
      "type": "function"
    },
    {
      "inputs": [],
      "name": "getTokenAddress",
      "outputs": [
        {
          "internalType": "contract IERC20",
          "name": "",
          "type": "address"
        }
      ],
      "stateMutability": "view",
      "type": "function",
      "constant": true
    },
    {
      "inputs": [],
      "name": "getBalance",
      "outputs": [
        {
          "internalType": "uint256",
          "name": "",
          "type": "uint256"
        }
      ],
      "stateMutability": "view",
      "type": "function",
      "constant": true
    },
    {
      "inputs": [],
      "name": "getClaimableAmount",
      "outputs": [
        {
          "internalType": "uint256",
          "name": "",
          "type": "uint256"
        }
      ],
      "stateMutability": "view",
      "type": "function",
      "constant": true
    },
    {
      "inputs": [],
      "name": "airdropClaimed",
      "outputs": [
        {
          "internalType": "bool",
          "name": "",
          "type": "bool"
        }
      ],
      "stateMutability": "view",
      "type": "function",
      "constant": true
    }
  ],
  "bytecode": "0x608060405234801561001057600080fd5b5061002d61002261003960201b60201c565b61004160201b60201c565b60018081905550610105565b600033905090565b60008060009054906101000a900473ffffffffffffffffffffffffffffffffffffffff169050816000806101000a81548173ffffffffffffffffffffffffffffffffffffffff021916908373ffffffffffffffffffffffffffffffffffffffff1602179055508173ffffffffffffffffffffffffffffffffffffffff168173ffffffffffffffffffffffffffffffffffffffff167f8be0079c531659141344cd1fd0a4f28419497f9722a3daafe3b4186f6b6457e060405160405180910390a35050565b6112ae806101146000396000f3fe608060405234801561001057600080fd5b50600436106100b45760003560e01c80638da5cb5b116100715780638da5cb5b146101415780639eea92cd1461015f578063a556f8461461017d578063c354bd6e1461019b578063f2fde38b146101b9578063fc0c546a146101d5576100b4565b806310fe9ae8146100b957806312065fe0146100d757806326a4e8d2146100f557806354df144d146101115780635b88349d1461012d578063715018a614610137575b600080fd5b6100c16101f3565b6040516100ce9190610ca5565b60405180910390f35b6100df61021d565b6040516100ec9190610cd9565b60405180910390f35b61010f600480360381019061010a9190610d37565b610351565b005b61012b60048036038101906101269190610d90565b610448565b005b6101356105a6565b005b61013f610927565b005b6101496109af565b6040516101569190610dcc565b60405180910390f35b6101676109d8565b6040516101749190610e02565b60405180910390f35b610185610a2c565b6040516101929190610cd9565b60405180910390f35b6101a3610a32565b6040516101b09190610cd9565b60405180910390f35b6101d360048036038101906101ce9190610d37565b610a3c565b005b6101dd610b34565b6040516101ea9190610ca5565b60405180910390f35b6000600260009054906101000a900473ffffffffffffffffffffffffffffffffffffffff16905090565b60008073ffffffffffffffffffffffffffffffffffffffff16600260009054906101000a900473ffffffffffffffffffffffffffffffffffffffff1673ffffffffffffffffffffffffffffffffffffffff1614156102b0576040517f08c379a00000000000000000000000000000000000000000000000000000000081526004016102a790610e7a565b60405180910390fd5b600260009054906101000a900473ffffffffffffffffffffffffffffffffffffffff1673ffffffffffffffffffffffffffffffffffffffff166370a08231306040518263ffffffff1660e01b815260040161030b9190610dcc565b602060405180830381865afa158015610328573d6000803e3d6000fd5b505050506040513d601f19601f8201168201806040525081019061034c9190610eaf565b905090565b610359610b5a565b73ffffffffffffffffffffffffffffffffffffffff166103776109af565b73ffffffffffffffffffffffffffffffffffffffff16146103cd576040517f08c379a00000000000000000000000000000000000000000000000000000000081526004016103c490610f28565b60405180910390fd5b80600260006101000a81548173ffffffffffffffffffffffffffffffffffffffff021916908373ffffffffffffffffffffffffffffffffffffffff1602179055507fd82cad5fdc98633445b90f806f2e1a61a5409f92187ee9cd87f1da18c90692668160405161043d9190610dcc565b60405180910390a150565b610450610b5a565b73ffffffffffffffffffffffffffffffffffffffff1661046e6109af565b73ffffffffffffffffffffffffffffffffffffffff16146104c4576040517f08c379a00000000000000000000000000000000000000000000000000000000081526004016104bb90610f28565b60405180910390fd5b600073ffffffffffffffffffffffffffffffffffffffff16600260009054906101000a900473ffffffffffffffffffffffffffffffffffffffff1673ffffffffffffffffffffffffffffffffffffffff161415610556576040517f08c379a000000000000000000000000000000000000000000000000000000000815260040161054d90610e7a565b60405180910390fd5b6000811161056357600080fd5b806004819055507fe13b87e357b6ab17c565a8042616084608de82978cf3794844a036a9b6abbb8b60045460405161059b9190610cd9565b60405180910390a150565b600073ffffffffffffffffffffffffffffffffffffffff16600260009054906101000a900473ffffffffffffffffffffffffffffffffffffffff1673ffffffffffffffffffffffffffffffffffffffff161415610638576040517f08c379a000000000000000000000000000000000000000000000000000000000815260040161062f90610e7a565b60405180910390fd5b60006004541161067d576040517f08c379a000000000000000000000000000000000000000000000000000000000815260040161067490610f94565b60405180910390fd5b600260015414156106c3576040517f08c379a00000000000000000000000000000000000000000000000000000000081526004016106ba90611000565b60405180910390fd5b600260018190555060001515600360003373ffffffffffffffffffffffffffffffffffffffff1673ffffffffffffffffffffffffffffffffffffffff16815260200190815260200160002060009054906101000a900460ff1615151461075e576040517f08c379a00000000000000000000000000000000000000000000000000000000081526004016107559061106c565b60405180910390fd5b60045461076961021d565b10156107aa576040517f08c379a00000000000000000000000000000000000000000000000000000000081526004016107a1906110d8565b60405180910390fd5b600260009054906101000a900473ffffffffffffffffffffffffffffffffffffffff1673ffffffffffffffffffffffffffffffffffffffff1663a9059cbb336004546040518363ffffffff1660e01b81526004016108099291906110f8565b6020604051808303816000875af1158015610828573d6000803e3d6000fd5b505050506040513d601f19601f8201168201806040525081019061084c919061114d565b61088b576040517f08c379a0000000000000000000000000000000000000000000000000000000008152600401610882906111c6565b60405180910390fd5b6001600360003373ffffffffffffffffffffffffffffffffffffffff1673ffffffffffffffffffffffffffffffffffffffff16815260200190815260200160002060006101000a81548160ff0219169083151502179055507f650e45f04ef8a0c267b2f78d983913f69ae3a353b2b32de5429307522be0ab55336004546040516109169291906110f8565b60405180910390a160018081905550565b61092f610b5a565b73ffffffffffffffffffffffffffffffffffffffff1661094d6109af565b73ffffffffffffffffffffffffffffffffffffffff16146109a3576040517f08c379a000000000000000000000000000000000000000000000000000000000815260040161099a90610f28565b60405180910390fd5b6109ad6000610b62565b565b60008060009054906101000a900473ffffffffffffffffffffffffffffffffffffffff16905090565b6000600360003373ffffffffffffffffffffffffffffffffffffffff1673ffffffffffffffffffffffffffffffffffffffff16815260200190815260200160002060009054906101000a900460ff16905090565b60045481565b6000600454905090565b610a44610b5a565b73ffffffffffffffffffffffffffffffffffffffff16610a626109af565b73ffffffffffffffffffffffffffffffffffffffff1614610ab8576040517f08c379a0000000000000000000000000000000000000000000000000000000008152600401610aaf90610f28565b60405180910390fd5b600073ffffffffffffffffffffffffffffffffffffffff168173ffffffffffffffffffffffffffffffffffffffff161415610b28576040517f08c379a0000000000000000000000000000000000000000000000000000000008152600401610b1f90611258565b60405180910390fd5b610b3181610b62565b50565b600260009054906101000a900473ffffffffffffffffffffffffffffffffffffffff1681565b600033905090565b60008060009054906101000a900473ffffffffffffffffffffffffffffffffffffffff169050816000806101000a81548173ffffffffffffffffffffffffffffffffffffffff021916908373ffffffffffffffffffffffffffffffffffffffff1602179055508173ffffffffffffffffffffffffffffffffffffffff168173ffffffffffffffffffffffffffffffffffffffff167f8be0079c531659141344cd1fd0a4f28419497f9722a3daafe3b4186f6b6457e060405160405180910390a35050565b600073ffffffffffffffffffffffffffffffffffffffff82169050919050565b6000819050919050565b6000610c6b610c66610c6184610c26565b610c46565b610c26565b9050919050565b6000610c7d82610c50565b9050919050565b6000610c8f82610c72565b9050919050565b610c9f81610c84565b82525050565b6000602082019050610cba6000830184610c96565b92915050565b6000819050919050565b610cd381610cc0565b82525050565b6000602082019050610cee6000830184610cca565b92915050565b600080fd5b6000610d0482610c26565b9050919050565b610d1481610cf9565b8114610d1f57600080fd5b50565b600081359050610d3181610d0b565b92915050565b600060208284031215610d4d57610d4c610cf4565b5b6000610d5b84828501610d22565b91505092915050565b610d6d81610cc0565b8114610d7857600080fd5b50565b600081359050610d8a81610d64565b92915050565b600060208284031215610da657610da5610cf4565b5b6000610db484828501610d7b565b91505092915050565b610dc681610cf9565b82525050565b6000602082019050610de16000830184610dbd565b92915050565b60008115159050919050565b610dfc81610de7565b82525050565b6000602082019050610e176000830184610df3565b92915050565b600082825260208201905092915050565b7f4e6f20746f6b656e206164647265737320736574000000000000000000000000600082015250565b6000610e64601483610e1d565b9150610e6f82610e2e565b602082019050919050565b60006020820190508181036000830152610e9381610e57565b9050919050565b600081519050610ea981610d64565b92915050565b600060208284031215610ec557610ec4610cf4565b5b6000610ed384828501610e9a565b91505092915050565b7f4f776e61626c653a2063616c6c6572206973206e6f7420746865206f776e6572600082015250565b6000610f12602083610e1d565b9150610f1d82610edc565b602082019050919050565b60006020820190508181036000830152610f4181610f05565b9050919050565b7f4e6f2063616c696d61626c6520616d6f756e7420736574000000000000000000600082015250565b6000610f7e601783610e1d565b9150610f8982610f48565b602082019050919050565b60006020820190508181036000830152610fad81610f71565b9050919050565b7f5265656e7472616e637947756172643a207265656e7472616e742063616c6c00600082015250565b6000610fea601f83610e1d565b9150610ff582610fb4565b602082019050919050565b6000602082019050818103600083015261101981610fdd565b9050919050565b7f41697264726f702068617320616c7265616479206265656e20636c61696d6564600082015250565b6000611056602083610e1d565b915061106182611020565b602082019050919050565b6000602082019050818103600083015261108581611049565b9050919050565b7f536f7272792c206e6f20746f6b656e73206c6566742100000000000000000000600082015250565b60006110c2601683610e1d565b91506110cd8261108c565b602082019050919050565b600060208201905081810360008301526110f1816110b5565b9050919050565b600060408201905061110d6000830185610dbd565b61111a6020830184610cca565b9392505050565b61112a81610de7565b811461113557600080fd5b50565b60008151905061114781611121565b92915050565b60006020828403121561116357611162610cf4565b5b600061117184828501611138565b91505092915050565b7f5472616e7366657220776173206e6f74207375636365737366756c0000000000600082015250565b60006111b0601b83610e1d565b91506111bb8261117a565b602082019050919050565b600060208201905081810360008301526111df816111a3565b9050919050565b7f4f776e61626c653a206e6577206f776e657220697320746865207a65726f206160008201527f6464726573730000000000000000000000000000000000000000000000000000602082015250565b6000611242602683610e1d565b915061124d826111e6565b604082019050919050565b6000602082019050818103600083015261127181611235565b905091905056fea26469706673582212203d3d1bc05067844954a828ab6f4c5e40c0dd3950ab5477fd41fd7b60297d49cb64736f6c634300080a0033",
  "immutableReferences": {},
  "source": "// SPDX-License-Identifier: MIT\npragma solidity ^0.8.0;\n\nimport \"@openzeppelin/contracts/access/Ownable.sol\";\nimport \"@openzeppelin/contracts/token/ERC20/IERC20.sol\";\nimport \"@openzeppelin/contracts/utils/math/SafeMath.sol\";\nimport \"@openzeppelin/contracts/security/ReentrancyGuard.sol\";\n\n/// @title Airdrop Contract\n/// @author ethSplit\n/// @notice Users can use this contract to claim tokens for free once per address\n/// @dev The owner sets the token address and the claimable amount, so users can claim tokens, while a mapping checks if a user already claimed tokens.\ncontract Airdrop is Ownable, ReentrancyGuard{\n\n    /// @notice Emitted when TokenAddress is being set\n    /// @param setTokenAddress ERC20 TokenAddress\n    event TokenAddressSet(address setTokenAddress);\n\n    /// @notice Emitted when ClaimableAmount is being set\n    /// @param claimableAmount amount to claim per user\n    event ClaimableAmountSet(uint claimableAmount);\n\n    /// @notice Emitted when Airdrop is being claimed\n    /// @param caller user that claimed the airdrop\n    /// @param amount that has been claimed\n    event AirdropClaimed(address caller, uint amount);\n\n    /// @notice used to store the token address\n    /// @dev imported IERC20.sol from openzeppelin to store token address\n    IERC20 public token;\n\n    /// @notice Mapping used to check if users claimed already\n    /// @dev sets the user that claims to true\n    mapping (address => bool) claimed;\n\n    /***\n    todo Whitelist users\n    /// @notice Checks if users are whitelisted\n    /// @dev owner can set an address to true, if it is eligible for the airdrop\n    mapping (address => bool) public whitelist;\n    ***/\n\n    /// @notice Amount of tokens to be claimed\n    /// @dev uint that stores the claimable amount of tokens per user\n    uint256 public claimableAmount;\n\n    ///@notice checks if token address is set\n    /// @dev function that have this modifier set, can only be run if token address is set\n    modifier isTokenSet() {\n        require(token != IERC20(address(0)), \"No token address set\");\n        _;\n    }\n\n    ///@notice checks if claimable amount is set\n    /// @dev claimable amount has to be higher than 0\n    modifier claimableAmountSet () {\n        require(claimableAmount > 0, \"No calimable amount set\");\n        _;\n    }\n\n    /// @notice sets the tokenaddress the contract will use\n    /// @dev adds the ERC20 Token address\n    /// @param _tokenAddress for the Token that should be claimable\n    function setTokenAddress (address _tokenAddress) external onlyOwner() {\n        token = IERC20(_tokenAddress);\n        emit TokenAddressSet(_tokenAddress);\n    }\n\n    /// @notice sets the amount of tokens that can be claimed per user\n    /// @dev pass normal decimal number\n    /// @param _amount the amount of tokens that should be claimable\n    function setClaimableAmount (uint _amount) external onlyOwner() isTokenSet(){\n        require(_amount > 0);\n        claimableAmount = _amount;\n        emit ClaimableAmountSet(claimableAmount);\n    }\n\n    /// @notice lets user claim the airdrop\n    /// @dev check that a user can claim only once\n    function claimAirdrop () external isTokenSet() claimableAmountSet() nonReentrant {\n        /**todo only whitelisted users\n        require(whitelist[msg.sender] == true);\n        **/\n        require(claimed[msg.sender] == false, \"Airdrop has already been claimed\");\n        require(getBalance() >= claimableAmount, \"Sorry, no tokens left!\");\n        require(token.transfer(msg.sender, claimableAmount), \"Transfer was not successful\");\n        claimed[msg.sender] = true;\n        emit AirdropClaimed(msg.sender, claimableAmount);\n    }\n\n    /// @notice Get the token address\n    /// @dev without token address claim is not possible\n    /// @return return erc20 token address\n    function getTokenAddress () public view returns(IERC20) {\n        return token;\n    }\n    \n    /// @notice returns the balance of this contract\n    /// @dev returns token balance\n    /// @return uint that stands for the token balance of this contract\n    function getBalance () public view isTokenSet() returns(uint) {\n        return token.balanceOf(address(this));\n    }\n\n    /// @notice get the available amount that can be claimed\n    /// @dev \n    /// @return return uint claimable amount\n    function getClaimableAmount () public view returns(uint) {\n        return claimableAmount;\n    }\n\n    /// @notice used to check if a user claimed airdrop\n    /// @dev readig data from mapping claimed\n    /// @return bool false if airdrop has not been claimed yet\n    function airdropClaimed () public view returns(bool){\n        return claimed[msg.sender];\n    }\n\n     /***\n    todo Add whitelist functionality\n    function addToWhiteList (address _user) onlyOwner() {\n        require (whitelist[_user] !=== false);\n        whitelist[_user] == true;\n    }\n    ***/\n    \n}",
  "sourcePath": "/mnt/c/Users/abesl/Coding/blockchain-developer-bootcamp-final-project/contracts/Airdrop.sol",
  "compiler": {
    "name": "solc",
    "version": "0.8.10+commit.fc410830.Emscripten.clang"
  },
  "schemaVersion": "3.4.3",
  "updatedAt": "2021-12-01T01:41:31.648Z",
  "networkType": "ethereum",
  "devdoc": {
    "author": "ethSplit",
    "details": "The owner sets the token address and the claimable amount, so users can claim tokens, while a mapping checks if a user already claimed tokens.",
    "events": {
      "AirdropClaimed(address,uint256)": {
        "params": {
          "amount": "that has been claimed",
          "caller": "user that claimed the airdrop"
        }
      },
      "ClaimableAmountSet(uint256)": {
        "params": {
          "claimableAmount": "amount to claim per user"
        }
      },
      "TokenAddressSet(address)": {
        "params": {
          "setTokenAddress": "ERC20 TokenAddress"
        }
      }
    },
    "kind": "dev",
    "methods": {
      "airdropClaimed()": {
        "details": "readig data from mapping claimed",
        "returns": {
          "_0": "bool false if airdrop has not been claimed yet"
        }
      },
      "claimAirdrop()": {
        "details": "check that a user can claim only once"
      },
      "getBalance()": {
        "details": "returns token balance",
        "returns": {
          "_0": "uint that stands for the token balance of this contract"
        }
      },
      "getClaimableAmount()": {
        "returns": {
          "_0": "return uint claimable amount"
        }
      },
      "getTokenAddress()": {
        "details": "without token address claim is not possible",
        "returns": {
          "_0": "return erc20 token address"
        }
      },
      "owner()": {
        "details": "Returns the address of the current owner."
      },
      "renounceOwnership()": {
        "details": "Leaves the contract without owner. It will not be possible to call `onlyOwner` functions anymore. Can only be called by the current owner. NOTE: Renouncing ownership will leave the contract without an owner, thereby removing any functionality that is only available to the owner."
      },
      "setClaimableAmount(uint256)": {
        "details": "pass normal decimal number",
        "params": {
          "_amount": "the amount of tokens that should be claimable"
        }
      },
      "setTokenAddress(address)": {
        "details": "adds the ERC20 Token address",
        "params": {
          "_tokenAddress": "for the Token that should be claimable"
        }
      },
      "transferOwnership(address)": {
        "details": "Transfers ownership of the contract to a new account (`newOwner`). Can only be called by the current owner."
      }
    },
    "stateVariables": {
      "claimableAmount": {
        "details": "uint that stores the claimable amount of tokens per user"
      },
      "claimed": {
        "details": "sets the user that claims to true"
      },
      "token": {
        "details": "imported IERC20.sol from openzeppelin to store token address"
      }
    },
    "title": "Airdrop Contract",
    "version": 1
  },
  "userdoc": {
    "events": {
      "AirdropClaimed(address,uint256)": {
        "notice": "Emitted when Airdrop is being claimed"
      },
      "ClaimableAmountSet(uint256)": {
        "notice": "Emitted when ClaimableAmount is being set"
      },
      "TokenAddressSet(address)": {
        "notice": "Emitted when TokenAddress is being set"
      }
    },
    "kind": "user",
    "methods": {
      "airdropClaimed()": {
        "notice": "used to check if a user claimed airdrop"
      },
      "claimAirdrop()": {
        "notice": "lets user claim the airdrop"
      },
      "claimableAmount()": {
        "notice": "Amount of tokens to be claimed"
      },
      "getBalance()": {
        "notice": "returns the balance of this contract"
      },
      "getClaimableAmount()": {
        "notice": "get the available amount that can be claimed"
      },
      "getTokenAddress()": {
        "notice": "Get the token address"
      },
      "setClaimableAmount(uint256)": {
        "notice": "sets the amount of tokens that can be claimed per user"
      },
      "setTokenAddress(address)": {
        "notice": "sets the tokenaddress the contract will use"
      },
      "token()": {
        "notice": "used to store the token address"
      }
    },
    "notice": "Users can use this contract to claim tokens for free once per address",
    "version": 1
  }
}