{
  "contractName": "StakingContract",
  "abi": [
    {
      "anonymous": false,
      "inputs": [
        {
          "indexed": true,
          "internalType": "address",
          "name": "previousOwner",
          "type": "address"
        },
        {
          "indexed": true,
          "internalType": "address",
          "name": "newOwner",
          "type": "address"
        }
      ],
      "name": "OwnershipTransferred",
      "type": "event"
    },
    {
      "anonymous": false,
      "inputs": [
        {
          "indexed": false,
          "internalType": "address",
          "name": "sender",
          "type": "address"
        },
        {
          "indexed": false,
          "internalType": "uint256",
          "name": "stakedAmount",
          "type": "uint256"
        }
      ],
      "name": "Staked",
      "type": "event"
    },
    {
      "anonymous": false,
      "inputs": [
        {
          "indexed": false,
          "internalType": "address",
          "name": "from",
          "type": "address"
        },
        {
          "indexed": false,
          "internalType": "address",
          "name": "tokenAddress",
          "type": "address"
        }
      ],
      "name": "TokenAddressSet",
      "type": "event"
    },
    {
      "anonymous": false,
      "inputs": [
        {
          "indexed": false,
          "internalType": "address",
          "name": "sender",
          "type": "address"
        },
        {
          "indexed": false,
          "internalType": "uint256",
          "name": "withdrawalAmount",
          "type": "uint256"
        }
      ],
      "name": "Unstaked",
      "type": "event"
    },
    {
      "inputs": [],
      "name": "defaultLockInDuration",
      "outputs": [
        {
          "internalType": "uint256",
          "name": "",
          "type": "uint256"
        }
      ],
      "stateMutability": "view",
      "type": "function",
      "constant": true
    },
    {
      "inputs": [],
      "name": "owner",
      "outputs": [
        {
          "internalType": "address",
          "name": "",
          "type": "address"
        }
      ],
      "stateMutability": "view",
      "type": "function",
      "constant": true
    },
    {
      "inputs": [],
      "name": "renounceOwnership",
      "outputs": [],
      "stateMutability": "nonpayable",
      "type": "function"
    },
    {
      "inputs": [],
      "name": "stakeholderCount",
      "outputs": [
        {
          "internalType": "uint256",
          "name": "",
          "type": "uint256"
        }
      ],
      "stateMutability": "view",
      "type": "function",
      "constant": true
    },
    {
      "inputs": [],
      "name": "stakingToken",
      "outputs": [
        {
          "internalType": "contract IERC20",
          "name": "",
          "type": "address"
        }
      ],
      "stateMutability": "view",
      "type": "function",
      "constant": true
    },
    {
      "inputs": [
        {
          "internalType": "address",
          "name": "newOwner",
          "type": "address"
        }
      ],
      "name": "transferOwnership",
      "outputs": [],
      "stateMutability": "nonpayable",
      "type": "function"
    },
    {
      "inputs": [
        {
          "internalType": "address",
          "name": "_tokenAddress",
          "type": "address"
        }
      ],
      "name": "setStakingToken",
      "outputs": [],
      "stateMutability": "nonpayable",
      "type": "function"
    },
    {
      "inputs": [
        {
          "internalType": "uint256",
          "name": "_amount",
          "type": "uint256"
        }
      ],
      "name": "stake",
      "outputs": [],
      "stateMutability": "payable",
      "type": "function",
      "payable": true
    },
    {
      "inputs": [
        {
          "internalType": "uint256",
          "name": "_amount",
          "type": "uint256"
        }
      ],
      "name": "unstake",
      "outputs": [],
      "stateMutability": "nonpayable",
      "type": "function"
    },
    {
      "inputs": [],
      "name": "getStakingToken",
      "outputs": [
        {
          "internalType": "contract IERC20",
          "name": "",
          "type": "address"
        }
      ],
      "stateMutability": "view",
      "type": "function",
      "constant": true
    },
    {
      "inputs": [
        {
          "internalType": "address",
          "name": "_address",
          "type": "address"
        }
      ],
      "name": "getStakeOf",
      "outputs": [
        {
          "internalType": "uint256",
          "name": "",
          "type": "uint256"
        }
      ],
      "stateMutability": "view",
      "type": "function",
      "constant": true
    },
    {
      "inputs": [],
      "name": "getStake",
      "outputs": [
        {
          "internalType": "uint256",
          "name": "",
          "type": "uint256"
        }
      ],
      "stateMutability": "view",
      "type": "function",
      "constant": true
    },
    {
      "inputs": [],
      "name": "claimReward",
      "outputs": [],
      "stateMutability": "nonpayable",
      "type": "function"
    }
  ],
  "bytecode": "0x6080604052600060025534801561001557600080fd5b5061003261002761003e60201b60201c565b61004660201b60201c565b6001808190555061010a565b600033905090565b60008060009054906101000a900473ffffffffffffffffffffffffffffffffffffffff169050816000806101000a81548173ffffffffffffffffffffffffffffffffffffffff021916908373ffffffffffffffffffffffffffffffffffffffff1602179055508173ffffffffffffffffffffffffffffffffffffffff168173ffffffffffffffffffffffffffffffffffffffff167f8be0079c531659141344cd1fd0a4f28419497f9722a3daafe3b4186f6b6457e060405160405180910390a35050565b6114fb806101196000396000f3fe6080604052600436106100c25760003560e01c80639f9106d11161007f578063d8319ef311610059578063d8319ef314610221578063e8297da21461024c578063f2fde38b14610277578063fc0e3d90146102a0576100c2565b80639f9106d1146101c3578063a694fc3a146101ee578063b88a802f1461020a576100c2565b80631e9b12ef146100c75780632e17de78146100f05780636a86550f14610119578063715018a61461015657806372f702f31461016d5780638da5cb5b14610198575b600080fd5b3480156100d357600080fd5b506100ee60048036038101906100e99190610ebf565b6102cb565b005b3480156100fc57600080fd5b5061011760048036038101906101129190610f22565b6103c4565b005b34801561012557600080fd5b50610140600480360381019061013b9190610ebf565b6106b4565b60405161014d9190610f5e565b60405180910390f35b34801561016257600080fd5b5061016b6106fd565b005b34801561017957600080fd5b50610182610785565b60405161018f9190610fd8565b60405180910390f35b3480156101a457600080fd5b506101ad6107ab565b6040516101ba9190611002565b60405180910390f35b3480156101cf57600080fd5b506101d86107d4565b6040516101e59190610fd8565b60405180910390f35b61020860048036038101906102039190610f22565b6107fe565b005b34801561021657600080fd5b5061021f610c17565b005b34801561022d57600080fd5b50610236610c19565b6040516102439190610f5e565b60405180910390f35b34801561025857600080fd5b50610261610c1f565b60405161026e9190610f5e565b60405180910390f35b34801561028357600080fd5b5061029e60048036038101906102999190610ebf565b610c25565b005b3480156102ac57600080fd5b506102b5610d1d565b6040516102c29190610f5e565b60405180910390f35b6102d3610d64565b73ffffffffffffffffffffffffffffffffffffffff166102f16107ab565b73ffffffffffffffffffffffffffffffffffffffff1614610347576040517f08c379a000000000000000000000000000000000000000000000000000000000815260040161033e9061107a565b60405180910390fd5b80600360006101000a81548173ffffffffffffffffffffffffffffffffffffffff021916908373ffffffffffffffffffffffffffffffffffffffff1602179055507f24b80abab34e4313f6fa818b4b740b32c9c113adccd46db535dbc92567953cdf33826040516103b992919061109a565b60405180910390a150565b600073ffffffffffffffffffffffffffffffffffffffff16600360009054906101000a900473ffffffffffffffffffffffffffffffffffffffff1673ffffffffffffffffffffffffffffffffffffffff161415610456576040517f08c379a000000000000000000000000000000000000000000000000000000000815260040161044d9061110f565b60405180910390fd5b6002600154141561049c576040517f08c379a00000000000000000000000000000000000000000000000000000000081526004016104939061117b565b60405180910390fd5b600260018190555080600460003373ffffffffffffffffffffffffffffffffffffffff1673ffffffffffffffffffffffffffffffffffffffff168152602001908152602001600020541015801561053257506000600460003373ffffffffffffffffffffffffffffffffffffffff1673ffffffffffffffffffffffffffffffffffffffff16815260200190815260200160002054115b61053b57600080fd5b61058d81600460003373ffffffffffffffffffffffffffffffffffffffff1673ffffffffffffffffffffffffffffffffffffffff16815260200190815260200160002054610d6c90919063ffffffff16565b600460003373ffffffffffffffffffffffffffffffffffffffff1673ffffffffffffffffffffffffffffffffffffffff16815260200190815260200160002081905550600360009054906101000a900473ffffffffffffffffffffffffffffffffffffffff1673ffffffffffffffffffffffffffffffffffffffff1663a9059cbb33836040518363ffffffff1660e01b815260040161062d92919061119b565b6020604051808303816000875af115801561064c573d6000803e3d6000fd5b505050506040513d601f19601f8201168201806040525081019061067091906111fc565b507f0f5bb82176feb1b5e747e28471aa92156a04d9f3ab9f45f28e2d704232b93f7533826040516106a292919061119b565b60405180910390a16001808190555050565b6000600460008373ffffffffffffffffffffffffffffffffffffffff1673ffffffffffffffffffffffffffffffffffffffff168152602001908152602001600020549050919050565b610705610d64565b73ffffffffffffffffffffffffffffffffffffffff166107236107ab565b73ffffffffffffffffffffffffffffffffffffffff1614610779576040517f08c379a00000000000000000000000000000000000000000000000000000000081526004016107709061107a565b60405180910390fd5b6107836000610d82565b565b600360009054906101000a900473ffffffffffffffffffffffffffffffffffffffff1681565b60008060009054906101000a900473ffffffffffffffffffffffffffffffffffffffff16905090565b6000600360009054906101000a900473ffffffffffffffffffffffffffffffffffffffff16905090565b600073ffffffffffffffffffffffffffffffffffffffff16600360009054906101000a900473ffffffffffffffffffffffffffffffffffffffff1673ffffffffffffffffffffffffffffffffffffffff161415610890576040517f08c379a00000000000000000000000000000000000000000000000000000000081526004016108879061110f565b60405180910390fd5b600260015414156108d6576040517f08c379a00000000000000000000000000000000000000000000000000000000081526004016108cd9061117b565b60405180910390fd5b600260018190555080600360009054906101000a900473ffffffffffffffffffffffffffffffffffffffff1673ffffffffffffffffffffffffffffffffffffffff166370a08231336040518263ffffffff1660e01b815260040161093a9190611002565b602060405180830381865afa158015610957573d6000803e3d6000fd5b505050506040513d601f19601f8201168201806040525081019061097b919061123e565b10156109bc576040517f08c379a00000000000000000000000000000000000000000000000000000000081526004016109b3906112b7565b60405180910390fd5b80600360009054906101000a900473ffffffffffffffffffffffffffffffffffffffff1673ffffffffffffffffffffffffffffffffffffffff1663dd62ed3e33306040518363ffffffff1660e01b8152600401610a1a92919061109a565b602060405180830381865afa158015610a37573d6000803e3d6000fd5b505050506040513d601f19601f82011682018060405250810190610a5b919061123e565b1015610a9c576040517f08c379a0000000000000000000000000000000000000000000000000000000008152600401610a9390611323565b60405180910390fd5b610aee81600460003373ffffffffffffffffffffffffffffffffffffffff1673ffffffffffffffffffffffffffffffffffffffff16815260200190815260200160002054610e4690919063ffffffff16565b600460003373ffffffffffffffffffffffffffffffffffffffff1673ffffffffffffffffffffffffffffffffffffffff16815260200190815260200160002081905550600360009054906101000a900473ffffffffffffffffffffffffffffffffffffffff1673ffffffffffffffffffffffffffffffffffffffff166323b872dd3330846040518463ffffffff1660e01b8152600401610b9093929190611343565b6020604051808303816000875af1158015610baf573d6000803e3d6000fd5b505050506040513d601f19601f82011682018060405250810190610bd391906111fc565b507f9e71bc8eea02a63969f509818f2dafb9254532904319f9dbda79b67bd34a5f3d3382604051610c0592919061119b565b60405180910390a16001808190555050565b565b60025481565b60075481565b610c2d610d64565b73ffffffffffffffffffffffffffffffffffffffff16610c4b6107ab565b73ffffffffffffffffffffffffffffffffffffffff1614610ca1576040517f08c379a0000000000000000000000000000000000000000000000000000000008152600401610c989061107a565b60405180910390fd5b600073ffffffffffffffffffffffffffffffffffffffff168173ffffffffffffffffffffffffffffffffffffffff161415610d11576040517f08c379a0000000000000000000000000000000000000000000000000000000008152600401610d08906113ec565b60405180910390fd5b610d1a81610d82565b50565b6000600460003373ffffffffffffffffffffffffffffffffffffffff1673ffffffffffffffffffffffffffffffffffffffff16815260200190815260200160002054905090565b600033905090565b60008183610d7a919061143b565b905092915050565b60008060009054906101000a900473ffffffffffffffffffffffffffffffffffffffff169050816000806101000a81548173ffffffffffffffffffffffffffffffffffffffff021916908373ffffffffffffffffffffffffffffffffffffffff1602179055508173ffffffffffffffffffffffffffffffffffffffff168173ffffffffffffffffffffffffffffffffffffffff167f8be0079c531659141344cd1fd0a4f28419497f9722a3daafe3b4186f6b6457e060405160405180910390a35050565b60008183610e54919061146f565b905092915050565b600080fd5b600073ffffffffffffffffffffffffffffffffffffffff82169050919050565b6000610e8c82610e61565b9050919050565b610e9c81610e81565b8114610ea757600080fd5b50565b600081359050610eb981610e93565b92915050565b600060208284031215610ed557610ed4610e5c565b5b6000610ee384828501610eaa565b91505092915050565b6000819050919050565b610eff81610eec565b8114610f0a57600080fd5b50565b600081359050610f1c81610ef6565b92915050565b600060208284031215610f3857610f37610e5c565b5b6000610f4684828501610f0d565b91505092915050565b610f5881610eec565b82525050565b6000602082019050610f736000830184610f4f565b92915050565b6000819050919050565b6000610f9e610f99610f9484610e61565b610f79565b610e61565b9050919050565b6000610fb082610f83565b9050919050565b6000610fc282610fa5565b9050919050565b610fd281610fb7565b82525050565b6000602082019050610fed6000830184610fc9565b92915050565b610ffc81610e81565b82525050565b60006020820190506110176000830184610ff3565b92915050565b600082825260208201905092915050565b7f4f776e61626c653a2063616c6c6572206973206e6f7420746865206f776e6572600082015250565b600061106460208361101d565b915061106f8261102e565b602082019050919050565b6000602082019050818103600083015261109381611057565b9050919050565b60006040820190506110af6000830185610ff3565b6110bc6020830184610ff3565b9392505050565b7f4e6f20746f6b656e206164647265737320736574000000000000000000000000600082015250565b60006110f960148361101d565b9150611104826110c3565b602082019050919050565b60006020820190508181036000830152611128816110ec565b9050919050565b7f5265656e7472616e637947756172643a207265656e7472616e742063616c6c00600082015250565b6000611165601f8361101d565b91506111708261112f565b602082019050919050565b6000602082019050818103600083015261119481611158565b9050919050565b60006040820190506111b06000830185610ff3565b6111bd6020830184610f4f565b9392505050565b60008115159050919050565b6111d9816111c4565b81146111e457600080fd5b50565b6000815190506111f6816111d0565b92915050565b60006020828403121561121257611211610e5c565b5b6000611220848285016111e7565b91505092915050565b60008151905061123881610ef6565b92915050565b60006020828403121561125457611253610e5c565b5b600061126284828501611229565b91505092915050565b7f4e6f7420656e6f7567682066756e647300000000000000000000000000000000600082015250565b60006112a160108361101d565b91506112ac8261126b565b602082019050919050565b600060208201905081810360008301526112d081611294565b9050919050565b7f4e6f7420617070726f7665640000000000000000000000000000000000000000600082015250565b600061130d600c8361101d565b9150611318826112d7565b602082019050919050565b6000602082019050818103600083015261133c81611300565b9050919050565b60006060820190506113586000830186610ff3565b6113656020830185610ff3565b6113726040830184610f4f565b949350505050565b7f4f776e61626c653a206e6577206f776e657220697320746865207a65726f206160008201527f6464726573730000000000000000000000000000000000000000000000000000602082015250565b60006113d660268361101d565b91506113e18261137a565b604082019050919050565b60006020820190508181036000830152611405816113c9565b9050919050565b7f4e487b7100000000000000000000000000000000000000000000000000000000600052601160045260246000fd5b600061144682610eec565b915061145183610eec565b9250828210156114645761146361140c565b5b828203905092915050565b600061147a82610eec565b915061148583610eec565b9250827fffffffffffffffffffffffffffffffffffffffffffffffffffffffffffffffff038211156114ba576114b961140c565b5b82820190509291505056fea2646970667358221220976516a18fe56a80bb028d2991fc5a746cfb2e91fc9cfaff04524fb539564ce664736f6c634300080a0033",
  "immutableReferences": {},
  "source": "// SPDX-License-Identifier: MITs\npragma solidity ^0.8.0;\n\nimport \"@openzeppelin/contracts/token/ERC20/IERC20.sol\";\nimport \"@openzeppelin/contracts/utils/math/SafeMath.sol\";\nimport \"@openzeppelin/contracts/access/Ownable.sol\";\nimport \"@openzeppelin/contracts/security/ReentrancyGuard.sol\";\n\n/// @title Staking Contract\n/// @author ethSplit\n/// @notice An implementation of a Staking Contract, to stake a Token\n/// @dev stake token into contract and get added to mapping that checks stakes\ncontract StakingContract is Ownable, ReentrancyGuard {\n\n  using SafeMath for uint;\n\n  /// @notice Emitted when Token address is set\n  /// @param from address that transacted this transaction\n  /// @param tokenAddress ERC20 token address\n  event TokenAddressSet (address from, address tokenAddress);\n\n  /// @notice Emitted when someone stakes to this contract\n  /// @param sender address called this function\n  /// @param stakedAmount amount that has been staked\n  event Staked (address sender, uint stakedAmount);\n\n  /// @notice Emitted when someone unstakes from this contract\n  /// @param sender address that called this function\n  /// @param withdrawalAmount amount that has been unstaked\n  event Unstaked (address sender, uint withdrawalAmount);\n\n  /// todo make use of this state variable for stakeholder Array\n  uint public stakeholderCount = 0;\n\n\n  /// @notice Stores token address that is used for staking\n  /// @dev ERC20 token address\n  IERC20 public stakingToken;\n\n  /// @notice Stores the stake for each address\n  /// @dev mapping that stores balance that is being staked by each address\n  mapping (address => uint256) internal stakes;\n\n  /// todo add reward functionality\n  mapping(address => uint256) internal rewards;\n\n  /// todo add stakeholders for reward functionality\n  address[] stakeholders;\n\n  //todo: add timelock to make withdraw unable for this time\n  uint256 public defaultLockInDuration;\n\n  modifier isTokenSet() {\n        require(stakingToken != IERC20(address(0)), \"No token address set\");\n        _;\n  }\n\n  //check if withdraw function is withdrawable\n  /**modifier isLocked () {\n\n  }*/\n  \n  /// @notice sets token address\n  /// @dev sets ERC20 token address\n  /// @param _tokenAddress ERC20 token address\n  function setStakingToken(address _tokenAddress) public onlyOwner() {\n    stakingToken = IERC20(_tokenAddress);\n    emit TokenAddressSet(msg.sender, _tokenAddress);\n  }\n\n  /// @notice user stakes amount of tokens\n  /// @dev check that user approved token amount\n  /// @param _amount to stake\n  function stake(uint256 _amount) public isTokenSet() nonReentrant payable {\n    require(stakingToken.balanceOf(msg.sender) >= _amount, \"Not enough funds\");\n    require(stakingToken.allowance(msg.sender, address(this)) >= _amount, \"Not approved\");\n    stakes[msg.sender] = stakes[msg.sender].add(_amount);\n    // todo stakeholderCount++;\n    stakingToken.transferFrom(msg.sender, address(this), _amount);\n    emit Staked(msg.sender, _amount);\n  }\n\n  /// @notice unstakes token amount\n  /// @dev check that amount is valid\n  /// @param _amount to unstake\n  function unstake(uint256 _amount) public isTokenSet() nonReentrant {\n    require(stakes[msg.sender] >= _amount && stakes[msg.sender] > 0);\n    stakes[msg.sender] = stakes[msg.sender].sub(_amount);\n    stakingToken.transfer(msg.sender, _amount);\n    emit Unstaked(msg.sender, _amount);\n  }\n\n  function getStakingToken () public view returns (IERC20) {\n    return stakingToken;\n  }\n\n  /// @notice get the staked amount for a specific address\n  /// @dev call the mapping stake to get amount of tokens staked by specific address\n  /// @param _address address that staked\n  /// @return uint amount of tokens staked\n  function getStakeOf(address _address) public view returns (uint256) {\n    return stakes[_address];\n  }\n\n  /// @notice return the staked amount of the caller\n  /// @dev return the staked amount of msg.sender\n  /// @return uint256 amount of tokens staked\n  function getStake () public view returns (uint256) {\n    return stakes[msg.sender];\n  }\n\n  /// todo implement reward functionality\n  function claimReward() public {\n    //\n  }\n\n}",
  "sourcePath": "/mnt/c/Users/abesl/Coding/webpack/contracts/StakingContract.sol",
  "compiler": {
    "name": "solc",
    "version": "0.8.10+commit.fc410830.Emscripten.clang"
  },
  "schemaVersion": "3.4.3",
  "updatedAt": "2021-11-30T04:32:19.780Z",
  "networkType": "ethereum",
  "devdoc": {
    "author": "ethSplit",
    "details": "stake token into contract and get added to mapping that checks stakes",
    "events": {
      "Staked(address,uint256)": {
        "params": {
          "sender": "address called this function",
          "stakedAmount": "amount that has been staked"
        }
      },
      "TokenAddressSet(address,address)": {
        "params": {
          "from": "address that transacted this transaction",
          "tokenAddress": "ERC20 token address"
        }
      },
      "Unstaked(address,uint256)": {
        "params": {
          "sender": "address that called this function",
          "withdrawalAmount": "amount that has been unstaked"
        }
      }
    },
    "kind": "dev",
    "methods": {
      "getStake()": {
        "details": "return the staked amount of msg.sender",
        "returns": {
          "_0": "uint256 amount of tokens staked"
        }
      },
      "getStakeOf(address)": {
        "details": "call the mapping stake to get amount of tokens staked by specific address",
        "params": {
          "_address": "address that staked"
        },
        "returns": {
          "_0": "uint amount of tokens staked"
        }
      },
      "owner()": {
        "details": "Returns the address of the current owner."
      },
      "renounceOwnership()": {
        "details": "Leaves the contract without owner. It will not be possible to call `onlyOwner` functions anymore. Can only be called by the current owner. NOTE: Renouncing ownership will leave the contract without an owner, thereby removing any functionality that is only available to the owner."
      },
      "setStakingToken(address)": {
        "details": "sets ERC20 token address",
        "params": {
          "_tokenAddress": "ERC20 token address"
        }
      },
      "stake(uint256)": {
        "details": "check that user approved token amount",
        "params": {
          "_amount": "to stake"
        }
      },
      "transferOwnership(address)": {
        "details": "Transfers ownership of the contract to a new account (`newOwner`). Can only be called by the current owner."
      },
      "unstake(uint256)": {
        "details": "check that amount is valid",
        "params": {
          "_amount": "to unstake"
        }
      }
    },
    "stateVariables": {
      "stakes": {
        "details": "mapping that stores balance that is being staked by each address"
      },
      "stakingToken": {
        "details": "ERC20 token address"
      }
    },
    "title": "Staking Contract",
    "version": 1
  },
  "userdoc": {
    "events": {
      "Staked(address,uint256)": {
        "notice": "Emitted when someone stakes to this contract"
      },
      "TokenAddressSet(address,address)": {
        "notice": "Emitted when Token address is set"
      },
      "Unstaked(address,uint256)": {
        "notice": "Emitted when someone unstakes from this contract"
      }
    },
    "kind": "user",
    "methods": {
      "claimReward()": {
        "notice": "todo implement reward functionality"
      },
      "getStake()": {
        "notice": "return the staked amount of the caller"
      },
      "getStakeOf(address)": {
        "notice": "get the staked amount for a specific address"
      },
      "setStakingToken(address)": {
        "notice": "sets token address"
      },
      "stake(uint256)": {
        "notice": "user stakes amount of tokens"
      },
      "stakeholderCount()": {
        "notice": "todo make use of this state variable for stakeholder Array"
      },
      "stakingToken()": {
        "notice": "Stores token address that is used for staking"
      },
      "unstake(uint256)": {
        "notice": "unstakes token amount"
      }
    },
    "notice": "An implementation of a Staking Contract, to stake a Token",
    "version": 1
  }
}