{
  "contractName": "StakingContract",
  "abi": [
    {
      "anonymous": false,
      "inputs": [
        {
          "indexed": true,
          "internalType": "address",
          "name": "previousOwner",
          "type": "address"
        },
        {
          "indexed": true,
          "internalType": "address",
          "name": "newOwner",
          "type": "address"
        }
      ],
      "name": "OwnershipTransferred",
      "type": "event"
    },
    {
      "anonymous": false,
      "inputs": [
        {
          "indexed": false,
          "internalType": "address",
          "name": "sender",
          "type": "address"
        },
        {
          "indexed": false,
          "internalType": "uint256",
          "name": "stakedAmount",
          "type": "uint256"
        }
      ],
      "name": "Staked",
      "type": "event"
    },
    {
      "anonymous": false,
      "inputs": [
        {
          "indexed": false,
          "internalType": "address",
          "name": "from",
          "type": "address"
        },
        {
          "indexed": false,
          "internalType": "address",
          "name": "tokenAddress",
          "type": "address"
        }
      ],
      "name": "TokenAddressSet",
      "type": "event"
    },
    {
      "anonymous": false,
      "inputs": [
        {
          "indexed": false,
          "internalType": "address",
          "name": "sender",
          "type": "address"
        },
        {
          "indexed": false,
          "internalType": "uint256",
          "name": "withdrawalAmount",
          "type": "uint256"
        }
      ],
      "name": "Unstaked",
      "type": "event"
    },
    {
      "inputs": [],
      "name": "defaultLockInDuration",
      "outputs": [
        {
          "internalType": "uint256",
          "name": "",
          "type": "uint256"
        }
      ],
      "stateMutability": "view",
      "type": "function",
      "constant": true
    },
    {
      "inputs": [],
      "name": "owner",
      "outputs": [
        {
          "internalType": "address",
          "name": "",
          "type": "address"
        }
      ],
      "stateMutability": "view",
      "type": "function",
      "constant": true
    },
    {
      "inputs": [],
      "name": "renounceOwnership",
      "outputs": [],
      "stateMutability": "nonpayable",
      "type": "function"
    },
    {
      "inputs": [],
      "name": "stakeholderCount",
      "outputs": [
        {
          "internalType": "uint256",
          "name": "",
          "type": "uint256"
        }
      ],
      "stateMutability": "view",
      "type": "function",
      "constant": true
    },
    {
      "inputs": [],
      "name": "stakingToken",
      "outputs": [
        {
          "internalType": "contract IERC20",
          "name": "",
          "type": "address"
        }
      ],
      "stateMutability": "view",
      "type": "function",
      "constant": true
    },
    {
      "inputs": [
        {
          "internalType": "address",
          "name": "newOwner",
          "type": "address"
        }
      ],
      "name": "transferOwnership",
      "outputs": [],
      "stateMutability": "nonpayable",
      "type": "function"
    },
    {
      "inputs": [
        {
          "internalType": "address",
          "name": "_tokenAddress",
          "type": "address"
        }
      ],
      "name": "setStakingToken",
      "outputs": [],
      "stateMutability": "nonpayable",
      "type": "function"
    },
    {
      "inputs": [
        {
          "internalType": "uint256",
          "name": "_amount",
          "type": "uint256"
        }
      ],
      "name": "stake",
      "outputs": [],
      "stateMutability": "payable",
      "type": "function",
      "payable": true
    },
    {
      "inputs": [
        {
          "internalType": "uint256",
          "name": "_amount",
          "type": "uint256"
        }
      ],
      "name": "unstake",
      "outputs": [],
      "stateMutability": "nonpayable",
      "type": "function"
    },
    {
      "inputs": [],
      "name": "getStakingToken",
      "outputs": [
        {
          "internalType": "contract IERC20",
          "name": "",
          "type": "address"
        }
      ],
      "stateMutability": "view",
      "type": "function",
      "constant": true
    },
    {
      "inputs": [
        {
          "internalType": "address",
          "name": "_address",
          "type": "address"
        }
      ],
      "name": "getStakeOf",
      "outputs": [
        {
          "internalType": "uint256",
          "name": "",
          "type": "uint256"
        }
      ],
      "stateMutability": "view",
      "type": "function",
      "constant": true
    },
    {
      "inputs": [],
      "name": "getStake",
      "outputs": [
        {
          "internalType": "uint256",
          "name": "",
          "type": "uint256"
        }
      ],
      "stateMutability": "view",
      "type": "function",
      "constant": true
    },
    {
      "inputs": [],
      "name": "claimReward",
      "outputs": [],
      "stateMutability": "nonpayable",
      "type": "function"
    }
  ],
  "bytecode": "0x6080604052600060025534801561001557600080fd5b5061003261002761003e60201b60201c565b61004660201b60201c565b6001808190555061010a565b600033905090565b60008060009054906101000a900473ffffffffffffffffffffffffffffffffffffffff169050816000806101000a81548173ffffffffffffffffffffffffffffffffffffffff021916908373ffffffffffffffffffffffffffffffffffffffff1602179055508173ffffffffffffffffffffffffffffffffffffffff168173ffffffffffffffffffffffffffffffffffffffff167f8be0079c531659141344cd1fd0a4f28419497f9722a3daafe3b4186f6b6457e060405160405180910390a35050565b6115a5806101196000396000f3fe6080604052600436106100c25760003560e01c80639f9106d11161007f578063d8319ef311610059578063d8319ef314610221578063e8297da21461024c578063f2fde38b14610277578063fc0e3d90146102a0576100c2565b80639f9106d1146101c3578063a694fc3a146101ee578063b88a802f1461020a576100c2565b80631e9b12ef146100c75780632e17de78146100f05780636a86550f14610119578063715018a61461015657806372f702f31461016d5780638da5cb5b14610198575b600080fd5b3480156100d357600080fd5b506100ee60048036038101906100e99190610efd565b6102cb565b005b3480156100fc57600080fd5b5061011760048036038101906101129190610f60565b6103c4565b005b34801561012557600080fd5b50610140600480360381019061013b9190610efd565b6106b4565b60405161014d9190610f9c565b60405180910390f35b34801561016257600080fd5b5061016b6106fd565b005b34801561017957600080fd5b50610182610785565b60405161018f9190611016565b60405180910390f35b3480156101a457600080fd5b506101ad6107ab565b6040516101ba9190611040565b60405180910390f35b3480156101cf57600080fd5b506101d86107d4565b6040516101e59190611016565b60405180910390f35b61020860048036038101906102039190610f60565b6107fe565b005b34801561021657600080fd5b5061021f610c55565b005b34801561022d57600080fd5b50610236610c57565b6040516102439190610f9c565b60405180910390f35b34801561025857600080fd5b50610261610c5d565b60405161026e9190610f9c565b60405180910390f35b34801561028357600080fd5b5061029e60048036038101906102999190610efd565b610c63565b005b3480156102ac57600080fd5b506102b5610d5b565b6040516102c29190610f9c565b60405180910390f35b6102d3610da2565b73ffffffffffffffffffffffffffffffffffffffff166102f16107ab565b73ffffffffffffffffffffffffffffffffffffffff1614610347576040517f08c379a000000000000000000000000000000000000000000000000000000000815260040161033e906110b8565b60405180910390fd5b80600360006101000a81548173ffffffffffffffffffffffffffffffffffffffff021916908373ffffffffffffffffffffffffffffffffffffffff1602179055507f24b80abab34e4313f6fa818b4b740b32c9c113adccd46db535dbc92567953cdf33826040516103b99291906110d8565b60405180910390a150565b600073ffffffffffffffffffffffffffffffffffffffff16600360009054906101000a900473ffffffffffffffffffffffffffffffffffffffff1673ffffffffffffffffffffffffffffffffffffffff161415610456576040517f08c379a000000000000000000000000000000000000000000000000000000000815260040161044d9061114d565b60405180910390fd5b6002600154141561049c576040517f08c379a0000000000000000000000000000000000000000000000000000000008152600401610493906111b9565b60405180910390fd5b600260018190555080600460003373ffffffffffffffffffffffffffffffffffffffff1673ffffffffffffffffffffffffffffffffffffffff168152602001908152602001600020541015801561053257506000600460003373ffffffffffffffffffffffffffffffffffffffff1673ffffffffffffffffffffffffffffffffffffffff16815260200190815260200160002054115b61053b57600080fd5b61058d81600460003373ffffffffffffffffffffffffffffffffffffffff1673ffffffffffffffffffffffffffffffffffffffff16815260200190815260200160002054610daa90919063ffffffff16565b600460003373ffffffffffffffffffffffffffffffffffffffff1673ffffffffffffffffffffffffffffffffffffffff16815260200190815260200160002081905550600360009054906101000a900473ffffffffffffffffffffffffffffffffffffffff1673ffffffffffffffffffffffffffffffffffffffff1663a9059cbb33836040518363ffffffff1660e01b815260040161062d9291906111d9565b6020604051808303816000875af115801561064c573d6000803e3d6000fd5b505050506040513d601f19601f82011682018060405250810190610670919061123a565b507f0f5bb82176feb1b5e747e28471aa92156a04d9f3ab9f45f28e2d704232b93f7533826040516106a29291906111d9565b60405180910390a16001808190555050565b6000600460008373ffffffffffffffffffffffffffffffffffffffff1673ffffffffffffffffffffffffffffffffffffffff168152602001908152602001600020549050919050565b610705610da2565b73ffffffffffffffffffffffffffffffffffffffff166107236107ab565b73ffffffffffffffffffffffffffffffffffffffff1614610779576040517f08c379a0000000000000000000000000000000000000000000000000000000008152600401610770906110b8565b60405180910390fd5b6107836000610dc0565b565b600360009054906101000a900473ffffffffffffffffffffffffffffffffffffffff1681565b60008060009054906101000a900473ffffffffffffffffffffffffffffffffffffffff16905090565b6000600360009054906101000a900473ffffffffffffffffffffffffffffffffffffffff16905090565b600073ffffffffffffffffffffffffffffffffffffffff16600360009054906101000a900473ffffffffffffffffffffffffffffffffffffffff1673ffffffffffffffffffffffffffffffffffffffff161415610890576040517f08c379a00000000000000000000000000000000000000000000000000000000081526004016108879061114d565b60405180910390fd5b600260015414156108d6576040517f08c379a00000000000000000000000000000000000000000000000000000000081526004016108cd906111b9565b60405180910390fd5b600260018190555080600360009054906101000a900473ffffffffffffffffffffffffffffffffffffffff1673ffffffffffffffffffffffffffffffffffffffff166370a08231336040518263ffffffff1660e01b815260040161093a9190611040565b602060405180830381865afa158015610957573d6000803e3d6000fd5b505050506040513d601f19601f8201168201806040525081019061097b919061127c565b10156109bc576040517f08c379a00000000000000000000000000000000000000000000000000000000081526004016109b3906112f5565b60405180910390fd5b80600360009054906101000a900473ffffffffffffffffffffffffffffffffffffffff1673ffffffffffffffffffffffffffffffffffffffff1663dd62ed3e33306040518363ffffffff1660e01b8152600401610a1a9291906110d8565b602060405180830381865afa158015610a37573d6000803e3d6000fd5b505050506040513d601f19601f82011682018060405250810190610a5b919061127c565b1015610a9c576040517f08c379a0000000000000000000000000000000000000000000000000000000008152600401610a9390611361565b60405180910390fd5b600360009054906101000a900473ffffffffffffffffffffffffffffffffffffffff1673ffffffffffffffffffffffffffffffffffffffff166323b872dd3330846040518463ffffffff1660e01b8152600401610afb93929190611381565b6020604051808303816000875af1158015610b1a573d6000803e3d6000fd5b505050506040513d601f19601f82011682018060405250810190610b3e919061123a565b610b7d576040517f08c379a0000000000000000000000000000000000000000000000000000000008152600401610b7490611404565b60405180910390fd5b610bcf81600460003373ffffffffffffffffffffffffffffffffffffffff1673ffffffffffffffffffffffffffffffffffffffff16815260200190815260200160002054610e8490919063ffffffff16565b600460003373ffffffffffffffffffffffffffffffffffffffff1673ffffffffffffffffffffffffffffffffffffffff168152602001908152602001600020819055507f9e71bc8eea02a63969f509818f2dafb9254532904319f9dbda79b67bd34a5f3d3382604051610c439291906111d9565b60405180910390a16001808190555050565b565b60025481565b60075481565b610c6b610da2565b73ffffffffffffffffffffffffffffffffffffffff16610c896107ab565b73ffffffffffffffffffffffffffffffffffffffff1614610cdf576040517f08c379a0000000000000000000000000000000000000000000000000000000008152600401610cd6906110b8565b60405180910390fd5b600073ffffffffffffffffffffffffffffffffffffffff168173ffffffffffffffffffffffffffffffffffffffff161415610d4f576040517f08c379a0000000000000000000000000000000000000000000000000000000008152600401610d4690611496565b60405180910390fd5b610d5881610dc0565b50565b6000600460003373ffffffffffffffffffffffffffffffffffffffff1673ffffffffffffffffffffffffffffffffffffffff16815260200190815260200160002054905090565b600033905090565b60008183610db891906114e5565b905092915050565b60008060009054906101000a900473ffffffffffffffffffffffffffffffffffffffff169050816000806101000a81548173ffffffffffffffffffffffffffffffffffffffff021916908373ffffffffffffffffffffffffffffffffffffffff1602179055508173ffffffffffffffffffffffffffffffffffffffff168173ffffffffffffffffffffffffffffffffffffffff167f8be0079c531659141344cd1fd0a4f28419497f9722a3daafe3b4186f6b6457e060405160405180910390a35050565b60008183610e929190611519565b905092915050565b600080fd5b600073ffffffffffffffffffffffffffffffffffffffff82169050919050565b6000610eca82610e9f565b9050919050565b610eda81610ebf565b8114610ee557600080fd5b50565b600081359050610ef781610ed1565b92915050565b600060208284031215610f1357610f12610e9a565b5b6000610f2184828501610ee8565b91505092915050565b6000819050919050565b610f3d81610f2a565b8114610f4857600080fd5b50565b600081359050610f5a81610f34565b92915050565b600060208284031215610f7657610f75610e9a565b5b6000610f8484828501610f4b565b91505092915050565b610f9681610f2a565b82525050565b6000602082019050610fb16000830184610f8d565b92915050565b6000819050919050565b6000610fdc610fd7610fd284610e9f565b610fb7565b610e9f565b9050919050565b6000610fee82610fc1565b9050919050565b600061100082610fe3565b9050919050565b61101081610ff5565b82525050565b600060208201905061102b6000830184611007565b92915050565b61103a81610ebf565b82525050565b60006020820190506110556000830184611031565b92915050565b600082825260208201905092915050565b7f4f776e61626c653a2063616c6c6572206973206e6f7420746865206f776e6572600082015250565b60006110a260208361105b565b91506110ad8261106c565b602082019050919050565b600060208201905081810360008301526110d181611095565b9050919050565b60006040820190506110ed6000830185611031565b6110fa6020830184611031565b9392505050565b7f4e6f20746f6b656e206164647265737320736574000000000000000000000000600082015250565b600061113760148361105b565b915061114282611101565b602082019050919050565b600060208201905081810360008301526111668161112a565b9050919050565b7f5265656e7472616e637947756172643a207265656e7472616e742063616c6c00600082015250565b60006111a3601f8361105b565b91506111ae8261116d565b602082019050919050565b600060208201905081810360008301526111d281611196565b9050919050565b60006040820190506111ee6000830185611031565b6111fb6020830184610f8d565b9392505050565b60008115159050919050565b61121781611202565b811461122257600080fd5b50565b6000815190506112348161120e565b92915050565b6000602082840312156112505761124f610e9a565b5b600061125e84828501611225565b91505092915050565b60008151905061127681610f34565b92915050565b60006020828403121561129257611291610e9a565b5b60006112a084828501611267565b91505092915050565b7f4e6f7420656e6f7567682066756e647300000000000000000000000000000000600082015250565b60006112df60108361105b565b91506112ea826112a9565b602082019050919050565b6000602082019050818103600083015261130e816112d2565b9050919050565b7f4e6f7420617070726f7665640000000000000000000000000000000000000000600082015250565b600061134b600c8361105b565b915061135682611315565b602082019050919050565b6000602082019050818103600083015261137a8161133e565b9050919050565b60006060820190506113966000830186611031565b6113a36020830185611031565b6113b06040830184610f8d565b949350505050565b7f546f6b656e207472616e73666572206661696c65640000000000000000000000600082015250565b60006113ee60158361105b565b91506113f9826113b8565b602082019050919050565b6000602082019050818103600083015261141d816113e1565b9050919050565b7f4f776e61626c653a206e6577206f776e657220697320746865207a65726f206160008201527f6464726573730000000000000000000000000000000000000000000000000000602082015250565b600061148060268361105b565b915061148b82611424565b604082019050919050565b600060208201905081810360008301526114af81611473565b9050919050565b7f4e487b7100000000000000000000000000000000000000000000000000000000600052601160045260246000fd5b60006114f082610f2a565b91506114fb83610f2a565b92508282101561150e5761150d6114b6565b5b828203905092915050565b600061152482610f2a565b915061152f83610f2a565b9250827fffffffffffffffffffffffffffffffffffffffffffffffffffffffffffffffff03821115611564576115636114b6565b5b82820190509291505056fea26469706673582212202bc10aabe0843a436e765684a8fc0c45d40f4303e1a0839948007e0124f532af64736f6c634300080a0033",
  "immutableReferences": {},
  "source": "// SPDX-License-Identifier: MITs\npragma solidity ^0.8.0;\n\nimport \"@openzeppelin/contracts/token/ERC20/IERC20.sol\";\nimport \"@openzeppelin/contracts/utils/math/SafeMath.sol\";\nimport \"@openzeppelin/contracts/access/Ownable.sol\";\nimport \"@openzeppelin/contracts/security/ReentrancyGuard.sol\";\n\n/// @title Staking Contract\n/// @author ethSplit\n/// @notice An implementation of a Staking Contract, to stake a Token\n/// @dev stake token into contract and get added to mapping that checks stakes\ncontract StakingContract is Ownable, ReentrancyGuard {\n\n  using SafeMath for uint;\n\n  /// @notice Emitted when Token address is set\n  /// @param from address that transacted this transaction\n  /// @param tokenAddress ERC20 token address\n  event TokenAddressSet (address from, address tokenAddress);\n\n  /// @notice Emitted when someone stakes to this contract\n  /// @param sender address called this function\n  /// @param stakedAmount amount that has been staked\n  event Staked (address sender, uint stakedAmount);\n\n  /// @notice Emitted when someone unstakes from this contract\n  /// @param sender address that called this function\n  /// @param withdrawalAmount amount that has been unstaked\n  event Unstaked (address sender, uint withdrawalAmount);\n\n  /// todo make use of this state variable for stakeholder Array\n  uint public stakeholderCount = 0;\n\n\n  /// @notice Stores token address that is used for staking\n  /// @dev ERC20 token address\n  IERC20 public stakingToken;\n\n  /// @notice Stores the stake for each address\n  /// @dev mapping that stores balance that is being staked by each address\n  mapping (address => uint256) internal stakes;\n\n  /// todo add reward functionality\n  mapping(address => uint256) internal rewards;\n\n  /// todo add stakeholders for reward functionality\n  address[] stakeholders;\n\n  //todo: add timelock to make withdraw unable for this time\n  uint256 public defaultLockInDuration;\n  \n  /// @notice checks if the token address is set\n  /// @dev functions implementing this modifier can only run if token address is set\n  modifier isTokenSet() {\n        require(stakingToken != IERC20(address(0)), \"No token address set\");\n        _;\n  }\n\n  //check if withdraw function is withdrawable\n  /**modifier isLocked () {\n\n  }*/\n  \n  /// @notice sets token address\n  /// @dev sets ERC20 token address\n  /// @param _tokenAddress ERC20 token address\n  function setStakingToken(address _tokenAddress) public onlyOwner() {\n    stakingToken = IERC20(_tokenAddress);\n    emit TokenAddressSet(msg.sender, _tokenAddress);\n  }\n\n  /// @notice user stakes amount of tokens\n  /// @dev check that user approved token amount\n  /// @param _amount to stake\n  function stake(uint256 _amount) public isTokenSet() nonReentrant payable {\n    require(stakingToken.balanceOf(msg.sender) >= _amount, \"Not enough funds\");\n    require(stakingToken.allowance(msg.sender, address(this)) >= _amount, \"Not approved\");\n    require(stakingToken.transferFrom(msg.sender, address(this), _amount), \"Token transfer failed\");\n    stakes[msg.sender] = stakes[msg.sender].add(_amount);\n    // todo stakeholderCount++;\n    emit Staked(msg.sender, _amount);\n  }\n\n  /// @notice unstakes token amount\n  /// @dev check that amount is valid\n  /// @param _amount to unstake\n  function unstake(uint256 _amount) public isTokenSet() nonReentrant {\n    require(stakes[msg.sender] >= _amount && stakes[msg.sender] > 0);\n    stakes[msg.sender] = stakes[msg.sender].sub(_amount);\n    stakingToken.transfer(msg.sender, _amount);\n    emit Unstaked(msg.sender, _amount);\n  }\n\n  /// @notice return the token address\n  /// @dev get the ERC20 address to interact with the specific token\n  /// @return return ERC20 address\n  function getStakingToken () public view returns (IERC20) {\n    return stakingToken;\n  }\n\n  /// @notice get the staked amount for a specific address\n  /// @dev call the mapping stake to get amount of tokens staked by specific address\n  /// @param _address address that staked\n  /// @return uint amount of tokens staked\n  function getStakeOf(address _address) public view returns (uint256) {\n    return stakes[_address];\n  }\n\n  /// @notice return the staked amount of the caller\n  /// @dev return the staked amount of msg.sender\n  /// @return uint256 amount of tokens staked\n  function getStake () public view returns (uint256) {\n    return stakes[msg.sender];\n  }\n\n  /// todo implement reward functionality\n  function claimReward() public {\n    //\n  }\n\n}",
  "sourcePath": "/mnt/c/Users/abesl/Coding/blockchain-developer-bootcamp-final-project/contracts/StakingContract.sol",
  "compiler": {
    "name": "solc",
    "version": "0.8.10+commit.fc410830.Emscripten.clang"
  },
  "schemaVersion": "3.4.3",
  "updatedAt": "2021-12-01T02:32:29.301Z",
  "networkType": "ethereum",
  "devdoc": {
    "author": "ethSplit",
    "details": "stake token into contract and get added to mapping that checks stakes",
    "events": {
      "Staked(address,uint256)": {
        "params": {
          "sender": "address called this function",
          "stakedAmount": "amount that has been staked"
        }
      },
      "TokenAddressSet(address,address)": {
        "params": {
          "from": "address that transacted this transaction",
          "tokenAddress": "ERC20 token address"
        }
      },
      "Unstaked(address,uint256)": {
        "params": {
          "sender": "address that called this function",
          "withdrawalAmount": "amount that has been unstaked"
        }
      }
    },
    "kind": "dev",
    "methods": {
      "getStake()": {
        "details": "return the staked amount of msg.sender",
        "returns": {
          "_0": "uint256 amount of tokens staked"
        }
      },
      "getStakeOf(address)": {
        "details": "call the mapping stake to get amount of tokens staked by specific address",
        "params": {
          "_address": "address that staked"
        },
        "returns": {
          "_0": "uint amount of tokens staked"
        }
      },
      "getStakingToken()": {
        "details": "get the ERC20 address to interact with the specific token",
        "returns": {
          "_0": "return ERC20 address"
        }
      },
      "owner()": {
        "details": "Returns the address of the current owner."
      },
      "renounceOwnership()": {
        "details": "Leaves the contract without owner. It will not be possible to call `onlyOwner` functions anymore. Can only be called by the current owner. NOTE: Renouncing ownership will leave the contract without an owner, thereby removing any functionality that is only available to the owner."
      },
      "setStakingToken(address)": {
        "details": "sets ERC20 token address",
        "params": {
          "_tokenAddress": "ERC20 token address"
        }
      },
      "stake(uint256)": {
        "details": "check that user approved token amount",
        "params": {
          "_amount": "to stake"
        }
      },
      "transferOwnership(address)": {
        "details": "Transfers ownership of the contract to a new account (`newOwner`). Can only be called by the current owner."
      },
      "unstake(uint256)": {
        "details": "check that amount is valid",
        "params": {
          "_amount": "to unstake"
        }
      }
    },
    "stateVariables": {
      "stakes": {
        "details": "mapping that stores balance that is being staked by each address"
      },
      "stakingToken": {
        "details": "ERC20 token address"
      }
    },
    "title": "Staking Contract",
    "version": 1
  },
  "userdoc": {
    "events": {
      "Staked(address,uint256)": {
        "notice": "Emitted when someone stakes to this contract"
      },
      "TokenAddressSet(address,address)": {
        "notice": "Emitted when Token address is set"
      },
      "Unstaked(address,uint256)": {
        "notice": "Emitted when someone unstakes from this contract"
      }
    },
    "kind": "user",
    "methods": {
      "claimReward()": {
        "notice": "todo implement reward functionality"
      },
      "getStake()": {
        "notice": "return the staked amount of the caller"
      },
      "getStakeOf(address)": {
        "notice": "get the staked amount for a specific address"
      },
      "getStakingToken()": {
        "notice": "return the token address"
      },
      "setStakingToken(address)": {
        "notice": "sets token address"
      },
      "stake(uint256)": {
        "notice": "user stakes amount of tokens"
      },
      "stakeholderCount()": {
        "notice": "todo make use of this state variable for stakeholder Array"
      },
      "stakingToken()": {
        "notice": "Stores token address that is used for staking"
      },
      "unstake(uint256)": {
        "notice": "unstakes token amount"
      }
    },
    "notice": "An implementation of a Staking Contract, to stake a Token",
    "version": 1
  }
}